{
  "contractName": "TokenTransfer",
  "abi": [
    {
      "inputs": [
        {
          "internalType": "address",
          "name": "tokenAddress",
          "type": "address"
        },
        {
          "internalType": "address",
          "name": "recipient",
          "type": "address"
        },
        {
          "internalType": "uint256",
          "name": "amount",
          "type": "uint256"
        }
      ],
      "name": "transferToken",
      "outputs": [],
      "stateMutability": "nonpayable",
      "type": "function"
    },
    {
      "inputs": [
        {
          "internalType": "address payable",
          "name": "recipient",
          "type": "address"
        }
      ],
      "name": "transferEth",
      "outputs": [],
      "stateMutability": "payable",
      "type": "function"
    }
  ],
  "bytecode": "0x608060405234801561001057600080fd5b5061042d806100206000396000f3fe6080604052600436106100295760003560e01c806330df47af1461002e578063f5537ede1461004a575b600080fd5b610048600480360381019061004391906101e8565b610073565b005b34801561005657600080fd5b50610071600480360381019061006c9190610211565b6100bd565b005b8073ffffffffffffffffffffffffffffffffffffffff166108fc349081150290604051600060405180830381858888f193505050501580156100b9573d6000803e3d6000fd5b5050565b60008390508073ffffffffffffffffffffffffffffffffffffffff1663a9059cbb84846040518363ffffffff1660e01b81526004016100fd9291906102e7565b602060405180830381600087803b15801561011757600080fd5b505af115801561012b573d6000803e3d6000fd5b505050506040513d601f19601f8201168201806040525081019061014f9190610260565b61018e576040517f08c379a000000000000000000000000000000000000000000000000000000000815260040161018590610310565b60405180910390fd5b50505050565b6000813590506101a38161039b565b92915050565b6000813590506101b8816103b2565b92915050565b6000815190506101cd816103c9565b92915050565b6000813590506101e2816103e0565b92915050565b6000602082840312156101fa57600080fd5b6000610208848285016101a9565b91505092915050565b60008060006060848603121561022657600080fd5b600061023486828701610194565b935050602061024586828701610194565b9250506040610256868287016101d3565b9150509250925092565b60006020828403121561027257600080fd5b6000610280848285016101be565b91505092915050565b61029281610341565b82525050565b60006102a5601583610330565b91507f546f6b656e207472616e73666572206661696c656400000000000000000000006000830152602082019050919050565b6102e181610391565b82525050565b60006040820190506102fc6000830185610289565b61030960208301846102d8565b9392505050565b6000602082019050818103600083015261032981610298565b9050919050565b600082825260208201905092915050565b600061034c82610371565b9050919050565b600061035e82610371565b9050919050565b60008115159050919050565b600073ffffffffffffffffffffffffffffffffffffffff82169050919050565b6000819050919050565b6103a481610341565b81146103af57600080fd5b50565b6103bb81610353565b81146103c657600080fd5b50565b6103d281610365565b81146103dd57600080fd5b50565b6103e981610391565b81146103f457600080fd5b5056fea26469706673582212206928266d6f4a3f346926da1ff8b324980c1bf3abf78f947f8496e680eac659cc64736f6c63430008000033",
  "immutableReferences": {},
  "source": "// SPDX-License-Identifier: MIT\r\npragma solidity ^0.8.0;\r\n\r\ncontract TokenTransfer {\r\n    function transferToken(address tokenAddress, address recipient, uint256 amount) external {\r\n        // Assuming ERC20 token standard\r\n        IERC20 token = IERC20(tokenAddress);\r\n        require(token.transfer(recipient, amount), \"Token transfer failed\");\r\n    }\r\n\r\n    function transferEth(address payable recipient) external payable {\r\n        recipient.transfer(msg.value);\r\n    }\r\n}\r\n\r\ninterface IERC20 {\r\n    function transfer(address to, uint256 value) external returns (bool);\r\n}",
  "sourcePath": "C:\\Users\\ragha\\Desktop\\token transferr\\contracts\\Tokentransfer.sol",
  "compiler": {
    "name": "solc",
    "version": "0.8.0+commit.c7dfd78e.Emscripten.clang"
  },
  "schemaVersion": "3.4.15",
  "updatedAt": "2023-08-13T06:46:14.070Z",
  "devdoc": {
    "kind": "dev",
    "methods": {},
    "version": 1
  },
  "userdoc": {
    "kind": "user",
    "methods": {},
    "version": 1
  }
}